{
    "contractName": "DrugTracker",
    "abi": [
        {
            "anonymous": false,
            "inputs": [
                {
                    "indexed": false,
                    "internalType": "string",
                    "name": "id",
                    "type": "string"
                },
                {
                    "indexed": false,
                    "internalType": "address",
                    "name": "creator",
                    "type": "address"
                }
            ],
            "name": "DrugCreated",
            "type": "event"
        },
        {
            "anonymous": false,
            "inputs": [
                {
                    "indexed": false,
                    "internalType": "string",
                    "name": "id",
                    "type": "string"
                },
                {
                    "indexed": false,
                    "internalType": "enum DrugTracker.DrugStatus",
                    "name": "status",
                    "type": "uint8"
                },
                {
                    "indexed": false,
                    "internalType": "address",
                    "name": "updater",
                    "type": "address"
                }
            ],
            "name": "DrugStatusUpdated",
            "type": "event"
        },
        {
            "inputs": [
                {
                    "internalType": "string",
                    "name": "_id",
                    "type": "string"
                }
            ],
            "name": "checkDrug",
            "outputs": [
                {
                    "internalType": "bool",
                    "name": "isInitialized",
                    "type": "bool"
                },
                {
                    "components": [
                        {
                            "internalType": "enum DrugTracker.DrugStatus",
                            "name": "status",
                            "type": "uint8"
                        },
                        {
                            "internalType": "uint256",
                            "name": "timestamp",
                            "type": "uint256"
                        },
                        {
                            "internalType": "address",
                            "name": "updatedBy",
                            "type": "address"
                        }
                    ],
                    "internalType": "struct DrugTracker.TrackingStep[]",
                    "name": "history",
                    "type": "tuple[]"
                }
            ],
            "stateMutability": "view",
            "type": "function"
        },
        {
            "inputs": [
                {
                    "internalType": "string",
                    "name": "_id",
                    "type": "string"
                }
            ],
            "name": "createDrug",
            "outputs": [],
            "stateMutability": "nonpayable",
            "type": "function"
        },
        {
            "inputs": [
                {
                    "internalType": "string",
                    "name": "_id",
                    "type": "string"
                },
                {
                    "internalType": "uint8",
                    "name": "_statusIndex",
                    "type": "uint8"
                }
            ],
            "name": "updateDrug",
            "outputs": [],
            "stateMutability": "nonpayable",
            "type": "function"
        }
    ],
    "bytecode": "60808060405234601557610886908161001a8239f35b5f80fdfe60806040526004361015610011575f80fd5b5f3560e01c80635dbe2d4b14610576578063df735bac146102e65763fdfa0c5b1461003a575f80fd5b346102e25760203660031901126102e25760043567ffffffffffffffff81116102e25761006b90369060040161070f565b60405160ff6001835192602081818701958087835e81015f815203019020015416610292576020604051809284518091835e81015f815203019020815167ffffffffffffffff811161027e578154600181811c91168015610274575b602082101461026057601f811161020f575b506020601f82116001146101865761017092827f90f4623b9ae4efac15363dfb53d053aeceef4a4784ad7138b5628c9feafc87d0959361015c935f9161017b575b508160011b915f199060031b1c19161781555b60018101600160ff1982541617905560026101466106c9565b915f8352426020840152336040840152016107a7565b60405191829160408352604083019061082c565b3360208301520390a1005b90508401515f61011a565b601f19821690835f52805f20915f5b8181106101f757508361015c9361017096937f90f4623b9ae4efac15363dfb53d053aeceef4a4784ad7138b5628c9feafc87d09896600194106101df575b5050811b01815561012d565b8601515f1960f88460031b161c191690555f806101d3565b9192602060018192868a015181550194019201610195565b818111156100d957825f5260205f20601f830160051c9060208410610258575b81601f9101920160051c03905f5b82811061024b5750506100d9565b5f8282015560010161023d565b5f915061022f565b634e487b7160e01b5f52602260045260245ffd5b90607f16906100c7565b634e487b7160e01b5f52604160045260245ffd5b60405162461bcd60e51b815260206004820152602260248201527f4944207468756f6320646120746f6e20746169207472656e2068652074686f6e604482015261672160f01b6064820152608490fd5b5f80fd5b346102e25760403660031901126102e25760043567ffffffffffffffff81116102e25761031790369060040161070f565b6024359060ff82168092036102e25760405160ff6001835192602081818701958087835e81015f8152030190200154161561052257600383116104d357600260405160208185518086835e81015f81520301902001545f1981019081116104bf5761039b60ff91600260405160208188518089835e81015f8152030190200161077a565b505416600481101561044c57600314610460576002906020604051809285518091835e81015f8152030190200190600483101561044c577f94a108635d388e203857ac5dafc0855d2017d67bb7f84d7175df897e483637dc9261041f610436936104036106c9565b9061040e848361076e565b4260208301523360408301526107a7565b61044160405193849360608552606085019061082c565b916020840190610761565b3360408301520390a1005b634e487b7160e01b5f52602160045260245ffd5b60405162461bcd60e51b815260206004820152603160248201527f5468756f632064612064756f632062616e2c206b686f6e6720746865207468616044820152707920646f69206c696368207472696e682160781b6064820152608490fd5b634e487b7160e01b5f52601160045260245ffd5b60405162461bcd60e51b815260206004820152602160248201527f5472616e67207468616920636170206e686174206b686f6e6720686f70206c656044820152602160f81b6064820152608490fd5b60405162461bcd60e51b815260206004820152602660248201527f4d616e67206c756f69206b686f6e672074696d2074686179204944207468756f60448201526563206e61792160d01b6064820152608490fd5b346102e25760203660031901126102e25760043567ffffffffffffffff81116102e25760206105aa8192369060040161070f565b604051928184925191829101835e81015f815203019020600260ff600183015416910180549167ffffffffffffffff831161027e5791906105f060208360051b016106e9565b918083526020830180925f5260205f205f915b83831061067d575050505060405192839260408401911515845260406020850152518091526060830191905f5b81811061063e575050500390f35b91935091602060606001928651610656828251610761565b83810151848301526040858060a01b03910151166040820152019401910191849392610630565b60036020600192610690999798996106c9565b61069e60ff8754168261076e565b8486015483820152848060a01b03600287015416604082015281520192019201919095949395610603565b604051906060820182811067ffffffffffffffff82111761027e57604052565b6040519190601f01601f1916820167ffffffffffffffff81118382101761027e57604052565b81601f820112156102e25780359067ffffffffffffffff821161027e5761073f601f8301601f19166020016106e9565b92828452602083830101116102e257815f926020809301838601378301015290565b90600482101561044c5752565b600482101561044c5752565b8054821015610793575f52600360205f20910201905f90565b634e487b7160e01b5f52603260045260245ffd5b80546801000000000000000081101561027e576107c99160018201815561077a565b61081957815190600482101561044c5760029160ff80198354169116178155602083015160018201550190604060018060a01b03910151166bffffffffffffffffffffffff60a01b825416179055565b634e487b7160e01b5f525f60045260245ffd5b805180835260209291819084018484015e5f828201840152601f01601f191601019056fea264697066735822122025af394a9dab0550878b8b92e948fa7d0afcad5d8107e6404f7d5ac87b9fdf8964736f6c63430008240033",
    "sourcePath": "c:/đại học/Blockchain/Nhom/medicine.sol",
    "compiler": {
        "name": "solc",
        "version": "0.8.36+commit.8a079791"
    },
    "functionHashes": {
        "checkDrug(string)": "5dbe2d4b",
        "createDrug(string)": "fdfa0c5b",
        "updateDrug(string,uint8)": "df735bac"
    },
    "gasEstimates": {
        "creation": {
            "codeDepositCost": "436400",
            "executionCost": "481",
            "totalCost": "436881"
        },
        "external": {
            "checkDrug(string)": "infinite",
            "createDrug(string)": "infinite",
            "updateDrug(string,uint8)": "infinite"
        }
    }
}